{
  "_format": "hh-sol-artifact-1",
  "contractName": "FilecoinMarketConsumer",
  "sourceName": "contracts/filecoin-api-examples/FilecoinMarketConsumer.sol",
  "abi": [
    {
      "inputs": [],
      "name": "activationStatus",
      "outputs": [
        {
          "internalType": "int64",
          "name": "activated",
          "type": "int64"
        },
        {
          "internalType": "int64",
          "name": "terminated",
          "type": "int64"
        }
      ],
      "stateMutability": "view",
      "type": "function"
    },
    {
      "inputs": [],
      "name": "clientCollateral",
      "outputs": [
        {
          "components": [
            {
              "internalType": "bytes",
              "name": "val",
              "type": "bytes"
            },
            {
              "internalType": "bool",
              "name": "neg",
              "type": "bool"
            }
          ],
          "internalType": "struct BigInt",
          "name": "collateral",
          "type": "tuple"
        }
      ],
      "stateMutability": "view",
      "type": "function"
    },
    {
      "inputs": [],
      "name": "dealClientActorId",
      "outputs": [
        {
          "internalType": "uint64",
          "name": "",
          "type": "uint64"
        }
      ],
      "stateMutability": "view",
      "type": "function"
    },
    {
      "inputs": [],
      "name": "dealCommitment",
      "outputs": [
        {
          "internalType": "bytes",
          "name": "data",
          "type": "bytes"
        },
        {
          "internalType": "uint64",
          "name": "size",
          "type": "uint64"
        }
      ],
      "stateMutability": "view",
      "type": "function"
    },
    {
      "inputs": [],
      "name": "dealLabel",
      "outputs": [
        {
          "internalType": "string",
          "name": "",
          "type": "string"
        }
      ],
      "stateMutability": "view",
      "type": "function"
    },
    {
      "inputs": [],
      "name": "dealPricePerEpoch",
      "outputs": [
        {
          "components": [
            {
              "internalType": "bytes",
              "name": "val",
              "type": "bytes"
            },
            {
              "internalType": "bool",
              "name": "neg",
              "type": "bool"
            }
          ],
          "internalType": "struct BigInt",
          "name": "price_per_epoch",
          "type": "tuple"
        }
      ],
      "stateMutability": "view",
      "type": "function"
    },
    {
      "inputs": [],
      "name": "dealProviderActorId",
      "outputs": [
        {
          "internalType": "uint64",
          "name": "",
          "type": "uint64"
        }
      ],
      "stateMutability": "view",
      "type": "function"
    },
    {
      "inputs": [],
      "name": "dealTerm",
      "outputs": [
        {
          "internalType": "int64",
          "name": "start",
          "type": "int64"
        },
        {
          "internalType": "int64",
          "name": "end",
          "type": "int64"
        }
      ],
      "stateMutability": "view",
      "type": "function"
    },
    {
      "inputs": [],
      "name": "isDealActivated",
      "outputs": [
        {
          "internalType": "bool",
          "name": "",
          "type": "bool"
        }
      ],
      "stateMutability": "view",
      "type": "function"
    },
    {
      "inputs": [],
      "name": "providerCollateral",
      "outputs": [
        {
          "components": [
            {
              "internalType": "bytes",
              "name": "val",
              "type": "bytes"
            },
            {
              "internalType": "bool",
              "name": "neg",
              "type": "bool"
            }
          ],
          "internalType": "struct BigInt",
          "name": "collateral",
          "type": "tuple"
        }
      ],
      "stateMutability": "view",
      "type": "function"
    },
    {
      "inputs": [
        {
          "internalType": "uint64",
          "name": "dealId",
          "type": "uint64"
        }
      ],
      "name": "storeAll",
      "outputs": [],
      "stateMutability": "nonpayable",
      "type": "function"
    },
    {
      "inputs": [
        {
          "internalType": "uint64",
          "name": "dealId",
          "type": "uint64"
        }
      ],
      "name": "storeClientCollateral",
      "outputs": [],
      "stateMutability": "nonpayable",
      "type": "function"
    },
    {
      "inputs": [
        {
          "internalType": "uint64",
          "name": "dealId",
          "type": "uint64"
        }
      ],
      "name": "storeDealActivationStatus",
      "outputs": [],
      "stateMutability": "nonpayable",
      "type": "function"
    },
    {
      "inputs": [
        {
          "internalType": "uint64",
          "name": "dealId",
          "type": "uint64"
        }
      ],
      "name": "storeDealClient",
      "outputs": [],
      "stateMutability": "nonpayable",
      "type": "function"
    },
    {
      "inputs": [
        {
          "internalType": "uint64",
          "name": "dealId",
          "type": "uint64"
        }
      ],
      "name": "storeDealClientProvider",
      "outputs": [],
      "stateMutability": "nonpayable",
      "type": "function"
    },
    {
      "inputs": [
        {
          "internalType": "uint64",
          "name": "dealId",
          "type": "uint64"
        }
      ],
      "name": "storeDealCommitment",
      "outputs": [],
      "stateMutability": "nonpayable",
      "type": "function"
    },
    {
      "inputs": [
        {
          "internalType": "uint64",
          "name": "dealId",
          "type": "uint64"
        }
      ],
      "name": "storeDealLabel",
      "outputs": [],
      "stateMutability": "nonpayable",
      "type": "function"
    },
    {
      "inputs": [
        {
          "internalType": "uint64",
          "name": "dealId",
          "type": "uint64"
        }
      ],
      "name": "storeDealTerm",
      "outputs": [],
      "stateMutability": "nonpayable",
      "type": "function"
    },
    {
      "inputs": [
        {
          "internalType": "uint64",
          "name": "dealId",
          "type": "uint64"
        }
      ],
      "name": "storeDealTotalPrice",
      "outputs": [],
      "stateMutability": "nonpayable",
      "type": "function"
    },
    {
      "inputs": [
        {
          "internalType": "uint64",
          "name": "dealId",
          "type": "uint64"
        }
      ],
      "name": "storeDealVerificaton",
      "outputs": [],
      "stateMutability": "nonpayable",
      "type": "function"
    },
    {
      "inputs": [
        {
          "internalType": "uint64",
          "name": "dealId",
          "type": "uint64"
        }
      ],
      "name": "storeProviderCollateral",
      "outputs": [],
      "stateMutability": "nonpayable",
      "type": "function"
    }
  ],
  "bytecode": "0x608060405234801561001057600080fd5b506137b4806100206000396000f3fe608060405234801561001057600080fd5b50600436106101375760003560e01c80639db0f72c116100b8578063d5f268e71161007c578063d5f268e7146102f3578063d7d06d441461030f578063e3a5cee81461032b578063e6171e1c14610349578063f3d4ef2914610367578063fca9226d1461038357610137565b80639db0f72c14610260578063a0b19fd51461027c578063afaef4b91461029a578063b693420b146102b9578063c5f3b1af146102d757610137565b80634c89deac116100ff5780634c89deac146101cd578063519b6837146101e95780636dd64d4c146102055780637f6c82351461022357806395f298cc1461024257610137565b8063047a90c51461013c5780630958f87b1461015b57806310af7c86146101795780632b9e649f14610195578063481ed8e0146101b1575b600080fd5b61014461039f565b604051610152929190612c2a565b60405180910390f35b61016361044d565b6040516101709190612cfc565b60405180910390f35b610193600480360381019061018e9190612d4f565b610510565b005b6101af60048036038101906101aa9190612d4f565b610551565b005b6101cb60048036038101906101c69190612d4f565b6105de565b005b6101e760048036038101906101e29190612d4f565b61062e565b005b61020360048036038101906101fe9190612d4f565b61069c565b005b61020d610706565b60405161021a9190612dd1565b60405180910390f35b61022b610794565b604051610239929190612e0f565b60405180910390f35b61024a6107c0565b6040516102579190612e38565b60405180910390f35b61027a60048036038101906102759190612d4f565b6107da565b005b61028461082a565b6040516102919190612cfc565b60405180910390f35b6102a26108ed565b6040516102b0929190612e0f565b60405180910390f35b6102c1610919565b6040516102ce9190612e38565b60405180910390f35b6102f160048036038101906102ec9190612d4f565b610933565b005b61030d60048036038101906103089190612d4f565b61099d565b005b61032960048036038101906103249190612d4f565b610a07565b005b610333610a94565b6040516103409190612e62565b60405180910390f35b610351610aa7565b60405161035e9190612cfc565b60405180910390f35b610381600480360381019061037c9190612d4f565b610b6a565b005b61039d60048036038101906103989190612d4f565b610bc7565b005b60028060000180546103b090612eac565b80601f01602080910402602001604051908101604052809291908181526020018280546103dc90612eac565b80156104295780601f106103fe57610100808354040283529160200191610429565b820191906000526020600020905b81548152906001019060200180831161040c57829003601f168201915b5050505050908060010160009054906101000a900467ffffffffffffffff16905082565b60098060000160405180604001604052908160008201805461046e90612eac565b80601f016020809104026020016040519081016040528092919081815260200182805461049a90612eac565b80156104e75780601f106104bc576101008083540402835291602001916104e7565b820191906000526020600020905b8154815290600101906020018083116104ca57829003601f168201915b505050505081526020016001820160009054906101000a900460ff161515151581525050905081565b61053160405180602001604052808367ffffffffffffffff16815250610bfe565b60000151600160106101000a81548160ff02191690831515021790555050565b61057260405180602001604052808367ffffffffffffffff16815250610c90565b600b60008201518160000160006101000a81548167ffffffffffffffff021916908360070b67ffffffffffffffff16021790555060208201518160000160086101000a81548167ffffffffffffffff021916908360070b67ffffffffffffffff16021790555090505050565b6105ff60405180602001604052808367ffffffffffffffff16815250610d22565b60000151600160086101000a81548167ffffffffffffffff021916908367ffffffffffffffff16021790555050565b61064f60405180602001604052808367ffffffffffffffff16815250610db4565b6002600082015181600001908161066691906130c2565b5060208201518160010160006101000a81548167ffffffffffffffff021916908367ffffffffffffffff16021790555090505050565b6106bd60405180602001604052808367ffffffffffffffff16815250610e46565b600960008201518160000160008201518160000190816106dd91906130c2565b5060208201518160010160006101000a81548160ff021916908315150217905550505090505050565b6000805461071390612eac565b80601f016020809104026020016040519081016040528092919081815260200182805461073f90612eac565b801561078c5780601f106107615761010080835404028352916020019161078c565b820191906000526020600020905b81548152906001019060200180831161076f57829003601f168201915b505050505081565b60048060000160009054906101000a900460070b908060000160089054906101000a900460070b905082565b600160009054906101000a900467ffffffffffffffff1681565b6107fb60405180602001604052808367ffffffffffffffff16815250610ed8565b60000151600160006101000a81548167ffffffffffffffff021916908367ffffffffffffffff16021790555050565b60078060000160405180604001604052908160008201805461084b90612eac565b80601f016020809104026020016040519081016040528092919081815260200182805461087790612eac565b80156108c45780601f10610899576101008083540402835291602001916108c4565b820191906000526020600020905b8154815290600101906020018083116108a757829003601f168201915b505050505081526020016001820160009054906101000a900460ff161515151581525050905081565b600b8060000160009054906101000a900460070b908060000160089054906101000a900460070b905082565b600160089054906101000a900467ffffffffffffffff1681565b61095460405180602001604052808367ffffffffffffffff16815250610f6a565b6005600082015181600001600082015181600001908161097491906130c2565b5060208201518160010160006101000a81548160ff021916908315150217905550505090505050565b6109be60405180602001604052808367ffffffffffffffff16815250610ffc565b600760008201518160000160008201518160000190816109de91906130c2565b5060208201518160010160006101000a81548160ff021916908315150217905550505090505050565b610a2860405180602001604052808367ffffffffffffffff1681525061108e565b600460008201518160000160006101000a81548167ffffffffffffffff021916908360070b67ffffffffffffffff16021790555060208201518160000160086101000a81548167ffffffffffffffff021916908360070b67ffffffffffffffff16021790555090505050565b600160109054906101000a900460ff1681565b600580600001604051806040016040529081600082018054610ac890612eac565b80601f0160208091040260200160405190810160405280929190818152602001828054610af490612eac565b8015610b415780601f10610b1657610100808354040283529160200191610b41565b820191906000526020600020905b815481529060010190602001808311610b2457829003601f168201915b505050505081526020016001820160009054906101000a900460ff161515151581525050905081565b610b7381610bc7565b610b7c816107da565b610b85816105de565b610b8e8161062e565b610b9781610a07565b610ba081610933565b610ba98161099d565b610bb28161069c565b610bbb81610510565b610bc481610551565b50565b610be860405180602001604052808367ffffffffffffffff16815250611120565b6000015160009081610bfa91906131ef565b5050565b610c06612a10565b6000610c11836111b2565b90506000610c5a639c9ac8196040518060400160405280600281526020017e050000000000000000000000000000000000000000000000000000000000008152508460716111ea565b90506000610c6782611326565b9050610c71612a10565b610c84828261142c90919063ffffffff16565b80945050505050919050565b610c98612a25565b6000610ca383611464565b90506000610cec639904f2ff6040518060400160405280600281526020017e050000000000000000000000000000000000000000000000000000000000008152508460716111ea565b90506000610cf982611326565b9050610d03612a25565b610d16828261149c90919063ffffffff16565b80945050505050919050565b610d2a612a45565b6000610d3583611530565b90506000610d7e6337bc36da6040518060400160405280600281526020017e050000000000000000000000000000000000000000000000000000000000008152508460716111ea565b90506000610d8b82611326565b9050610d95612a45565b610da8828261156890919063ffffffff16565b80945050505050919050565b610dbc612a62565b6000610dc7836115a3565b90506000610e10634505760a6040518060400160405280600281526020017e050000000000000000000000000000000000000000000000000000000000008152508460716111ea565b90506000610e1d82611326565b9050610e27612a62565b610e3a82826115db90919063ffffffff16565b80945050505050919050565b610e4e612a86565b6000610e598361165c565b90506000610ea263b2059c496040518060400160405280600281526020017e050000000000000000000000000000000000000000000000000000000000008152508460716111ea565b90506000610eaf82611326565b9050610eb9612a86565b610ecc828261169490919063ffffffff16565b80945050505050919050565b610ee0612a9f565b6000610eeb836116ca565b90506000610f346307a1f0516040518060400160405280600281526020017e050000000000000000000000000000000000000000000000000000000000008152508460716111ea565b90506000610f4182611326565b9050610f4b612a9f565b610f5e828261170290919063ffffffff16565b80945050505050919050565b610f72612abc565b6000610f7d8361173d565b90506000610fc663ff88e83c6040518060400160405280600281526020017e050000000000000000000000000000000000000000000000000000000000008152508460716111ea565b90506000610fd382611326565b9050610fdd612abc565b610ff0828261177590919063ffffffff16565b80945050505050919050565b611004612ad5565b600061100f836117ab565b90506000611058630bf46c576040518060400160405280600281526020017e050000000000000000000000000000000000000000000000000000000000008152508460716111ea565b9050600061106582611326565b905061106f612ad5565b61108282826117e390919063ffffffff16565b80945050505050919050565b611096612aee565b60006110a183611819565b905060006110ea6309c30b206040518060400160405280600281526020017e050000000000000000000000000000000000000000000000000000000000008152508460716111ea565b905060006110f782611326565b9050611101612aee565b611114828261185190919063ffffffff16565b80945050505050919050565b611128612b0e565b6000611133836118e5565b9050600061117c6302c373866040518060400160405280600281526020017e050000000000000000000000000000000000000000000000000000000000008152508460716111ea565b9050600061118982611326565b9050611193612b0e565b6111a6828261191d90919063ffffffff16565b80945050505050919050565b606060006111c0604061194b565b90506111d983600001518261197290919063ffffffff16565b6111e281611982565b915050919050565b6060600061030067ffffffffffffffff1667ffffffffffffffff81111561121457611213612edd565b5b6040519080825280601f01601f1916602001820160405280156112465781602001600182028036833780820191505090505b50905060008060003490508651925087519150604051898152816020820152600060408201528660608201528360808201528260a082015260c060005b858110156112a357806020018a0151818301840152602081019050611283565b60208606156112b85760208606602082030190505b808201915060009050600090505b848110156112e657806020018b01518183018401526020810190506112c6565b60208506156112fb5760208506602082030190505b6103008761010085600e6305f5e100f461131457600080fd5b50505083945050505050949350505050565b606060006113358360006119db565b905060006113448460606119db565b905060008214611353836119e9565b6040516020016113639190613323565b604051602081830303815290604052906113b3576040517f08c379a00000000000000000000000000000000000000000000000000000000081526004016113aa9190612dd1565b60405180910390fd5b5060008167ffffffffffffffff8111156113d0576113cf612edd565b5b6040519080825280601f01601f1916602001820160405280156114025781602001600182028036833780820191505090505b50905060008060808701915060208301905061141f828286611ab7565b8295505050505050919050565b600080600090506114468184611b4090919063ffffffff16565b80925081935050508184600001901515908115158152505050505050565b60606000611472604061194b565b905061148b83600001518261197290919063ffffffff16565b61149481611982565b915050919050565b6000806000806114b58286611bb890919063ffffffff16565b8093508192505050600281146114ce576114cd613349565b5b6114e18286611c0790919063ffffffff16565b80935081955050506114fc8286611c0790919063ffffffff16565b809350819450505083866000019060070b908160070b8152505082866020019060070b908160070b81525050505050505050565b6060600061153e604061194b565b905061155783600001518261197290919063ffffffff16565b61156081611982565b915050919050565b600061157d8183611c6790919063ffffffff16565b846000018193508267ffffffffffffffff1667ffffffffffffffff168152505050505050565b606060006115b1604061194b565b90506115ca83600001518261197290919063ffffffff16565b6115d381611982565b915050919050565b6000806115f18284611bb890919063ffffffff16565b80935081925050506000811115611656576116158284611cb690919063ffffffff16565b8560000181945082905250506116348284611c6790919063ffffffff16565b856020018194508267ffffffffffffffff1667ffffffffffffffff1681525050505b50505050565b6060600061166a604061194b565b905061168383600001518261197290919063ffffffff16565b61168c81611982565b915050919050565b606060006116ab8184611cb690919063ffffffff16565b80925081935050506116bc82611e60565b846000018190525050505050565b606060006116d8604061194b565b90506116f183600001518261197290919063ffffffff16565b6116fa81611982565b915050919050565b60006117178183611c6790919063ffffffff16565b846000018193508267ffffffffffffffff1667ffffffffffffffff168152505050505050565b6060600061174b604061194b565b905061176483600001518261197290919063ffffffff16565b61176d81611982565b915050919050565b6060600061178c8184611cb690919063ffffffff16565b809250819350505061179d82611e60565b846000018190525050505050565b606060006117b9604061194b565b90506117d283600001518261197290919063ffffffff16565b6117db81611982565b915050919050565b606060006117fa8184611cb690919063ffffffff16565b809250819350505061180b82611e60565b846000018190525050505050565b60606000611827604061194b565b905061184083600001518261197290919063ffffffff16565b61184981611982565b915050919050565b60008060008061186a8286611bb890919063ffffffff16565b80935081925050506002811461188357611882613349565b5b6118968286611c0790919063ffffffff16565b80935081955050506118b18286611c0790919063ffffffff16565b809350819450505083866000019060070b908160070b8152505082866020019060070b908160070b81525050505050505050565b606060006118f3604061194b565b905061190c83600001518261197290919063ffffffff16565b61191581611982565b915050919050565b60606000611934818461200790919063ffffffff16565b809250819350505081846000018190525050505050565b611953612b21565b611961816000015183612157565b506000816020018181525050919050565b61197e826000836121d0565b5050565b606060008260200151146119cb576040517f08c379a00000000000000000000000000000000000000000000000000000000081526004016119c2906133c4565b60405180910390fd5b8160000151600001519050919050565b600081830151905092915050565b6060600060016119f884612379565b01905060008167ffffffffffffffff811115611a1757611a16612edd565b5b6040519080825280601f01601f191660200182016040528015611a495781602001600182028036833780820191505090505b509050600082602001820190505b600115611aac578080600190039150507f3031323334353637383961626364656600000000000000000000000000000000600a86061a8153600a8581611aa057611a9f6133e4565b5b04945060008503611a57575b819350505050919050565b5b60208110611af65782518252602082611ad19190613442565b9150602083611ae09190613442565b9250602081611aef9190613476565b9050611ab8565b6000810315611b3b5760006001826020611b109190613476565b610100611b1d91906135dd565b611b279190613476565b905080198451168184511681811785525050505b505050565b600080600080611b5086866124cc565b8167ffffffffffffffff169150809750819350829450505050600760ff168260ff1614611b8057611b7f613349565b5b601560ff16811480611b955750601460ff1681145b611ba257611ba1613349565b5b601460ff16811415859350935050509250929050565b600080600080611bc886866124cc565b8167ffffffffffffffff169150809750819350829450505050600460ff168260ff1614611bf857611bf7613349565b5b80859350935050509250929050565b600080600080611c1786866124cc565b8167ffffffffffffffff169150809750819350829450505050600160ff168260ff161480611c4b5750600060ff168260ff16145b611c5857611c57613349565b5b80859350935050509250929050565b600080600080611c7786866124cc565b8167ffffffffffffffff169150809750819350829450505050600060ff168260ff1614611ca757611ca6613349565b5b80859350935050509250929050565b60606000806000611cc786866124cc565b8167ffffffffffffffff169150809750819350829450505050600660ff168260ff161480611cfb5750600260ff168260ff16145b611d0857611d07613349565b5b600660ff168260ff1603611d5157611d2086866124cc565b8167ffffffffffffffff169150809750819350829450505050600260ff168260ff1614611d5057611d4f613349565b5b5b60008186611d5f9190613442565b905060008267ffffffffffffffff811115611d7d57611d7c612edd565b5b6040519080825280601f01601f191660200182016040528015611daf5781602001600182028036833780820191505090505b5090506000808890505b83811015611e4257898181518110611dd457611dd3613628565b5b602001015160f81c60f81b838381518110611df257611df1613628565b5b60200101907effffffffffffffffffffffffffffffffffffffffffffffffffffffffffffff1916908160001a9053508180611e2c90613657565b9250508080611e3a90613657565b915050611db9565b50818489611e509190613442565b9650965050505050509250929050565b611e68612b41565b6000825103611ea657604051806040016040528060405180604001604052806001815260200160008152508152602001600015158152509050612002565b600060018351611eb69190613476565b67ffffffffffffffff811115611ecf57611ece612edd565b5b6040519080825280601f01601f191660200182016040528015611f015781602001600182028036833780820191505090505b5090506000600160f81b84600081518110611f1f57611f1e613628565b5b602001015160f81c60f81b7effffffffffffffffffffffffffffffffffffffffffffffffffffffffffffff191603611f5657600190505b6000600190505b8451811015611fe557848181518110611f7957611f78613628565b5b602001015160f81c60f81b83600183611f929190613476565b81518110611fa357611fa2613628565b5b60200101907effffffffffffffffffffffffffffffffffffffffffffffffffffffffffffff1916908160001a9053508080611fdd90613657565b915050611f5d565b506040518060400160405280838152602001821515815250925050505b919050565b6060600080600061201886866124cc565b8167ffffffffffffffff169150809750819350829450505050600360ff168260ff161461204857612047613349565b5b600081866120569190613442565b905060008267ffffffffffffffff81111561207457612073612edd565b5b6040519080825280601f01601f1916602001820160405280156120a65781602001600182028036833780820191505090505b5090506000808890505b83811015612139578981815181106120cb576120ca613628565b5b602001015160f81c60f81b8383815181106120e9576120e8613628565b5b60200101907effffffffffffffffffffffffffffffffffffffffffffffffffffffffffffff1916908160001a905350818061212390613657565b925050808061213190613657565b9150506120b0565b508184896121479190613442565b9650965050505050509250929050565b61215f612b5d565b600060208361216e919061369f565b1461219a57602082612180919061369f565b602061218c9190613476565b826121979190613442565b91505b8183602001818152505060405180845260008152828101602001818110156121c157600080fd5b80604052505082905092915050565b60178167ffffffffffffffff161161220b576122058160058460ff16901b60ff1617846000015161265a90919063ffffffff16565b50612374565b60ff8167ffffffffffffffff16116122695761223e601860058460ff16901b17846000015161265a90919063ffffffff16565b506122638167ffffffffffffffff16600185600001516126c49092919063ffffffff16565b50612373565b61ffff8167ffffffffffffffff16116122c85761229d601960058460ff16901b17846000015161265a90919063ffffffff16565b506122c28167ffffffffffffffff16600285600001516126c49092919063ffffffff16565b50612372565b63ffffffff8167ffffffffffffffff1611612329576122fe601a60058460ff16901b17846000015161265a90919063ffffffff16565b506123238167ffffffffffffffff16600485600001516126c49092919063ffffffff16565b50612371565b61234a601b60058460ff16901b17846000015161265a90919063ffffffff16565b5061236f8167ffffffffffffffff16600885600001516126c49092919063ffffffff16565b505b5b5b5b505050565b600080600090507a184f03e93ff9f4daa797ed6e38ed64bf6a1f01000000000000000083106123d7577a184f03e93ff9f4daa797ed6e38ed64bf6a1f01000000000000000083816123cd576123cc6133e4565b5b0492506040810190505b6d04ee2d6d415b85acef81000000008310612414576d04ee2d6d415b85acef8100000000838161240a576124096133e4565b5b0492506020810190505b662386f26fc10000831061244357662386f26fc100008381612439576124386133e4565b5b0492506010810190505b6305f5e100831061246c576305f5e1008381612462576124616133e4565b5b0492506008810190505b6127108310612491576127108381612487576124866133e4565b5b0492506004810190505b606483106124b457606483816124aa576124a96133e4565b5b0492506002810190505b600a83106124c3576001810190505b80915050919050565b6000806000806124dc8686612751565b90506001856124eb9190613442565b94506000600560e0831660ff16901c90506000601f83169050601c8160ff161061251857612517613349565b5b60188160ff16101561253b578181888160ff169150955095509550505050612653565b60188160ff16036125905760006125528989612751565b90506001886125619190613442565b975060188160ff16101561257857612577613349565b5b8281898160ff16915096509650965050505050612653565b60198160ff16036125d15760006125a789896127b8565b90506002886125b69190613442565b97508281898161ffff16915096509650965050505050612653565b601a8160ff16036126145760006125e8898961281f565b90506004886125f79190613442565b97508281898163ffffffff16915096509650965050505050612653565b601b8160ff161461262857612627613349565b5b60006126348989612886565b90506008886126439190613442565b9750828189965096509650505050505b9250925092565b612662612b5d565b60008360000151519050600060018261267b9190613442565b90508460200151821061269f5761269e8560028361269991906136d0565b6128ed565b5b845160208382010185815381518311156126b7578282525b5050849250505092915050565b6126cc612b5d565b60008460000151519050600081846126e49190613442565b90508560200151811115612709576127088660028361270391906136d0565b6128ed565b5b600060018561010061271b91906135dd565b6127259190613476565b905086518281018783198251161781528151841115612742578382525b50508693505050509392505050565b60006001826127609190613442565b835110156127a3576040517f08c379a000000000000000000000000000000000000000000000000000000000815260040161279a9061375e565b60405180910390fd5b60008260010184015190508091505092915050565b60006002826127c79190613442565b8351101561280a576040517f08c379a00000000000000000000000000000000000000000000000000000000081526004016128019061375e565b60405180910390fd5b60008260020184015190508091505092915050565b600060048261282e9190613442565b83511015612871576040517f08c379a00000000000000000000000000000000000000000000000000000000081526004016128689061375e565b60405180910390fd5b60008260040184015190508091505092915050565b60006008826128959190613442565b835110156128d8576040517f08c379a00000000000000000000000000000000000000000000000000000000081526004016128cf9061375e565b60405180910390fd5b60008260080184015190508091505092915050565b6000826000015190506129008383612157565b5061290b8382612911565b50505050565b612919612b5d565b6129258383845161292d565b905092915050565b612935612b5d565b825182111561294357600080fd5b600084600001515190506000838261295b9190613442565b905085602001518111156129805761297f8660028361297a91906136d0565b6128ed565b5b6000808751805185602083010193508085111561299b578482525b60208901925050505b602086106129e257805182526020826129bd9190613442565b91506020816129cc9190613442565b90506020866129db9190613476565b95506129a4565b60006001876020036101000a0390508019825116818451168181178552505050879450505050509392505050565b60405180602001604052806000151581525090565b6040518060400160405280600060070b8152602001600060070b81525090565b6040518060200160405280600067ffffffffffffffff1681525090565b604051806040016040528060608152602001600067ffffffffffffffff1681525090565b6040518060200160405280612a99612b41565b81525090565b6040518060200160405280600067ffffffffffffffff1681525090565b6040518060200160405280612acf612b41565b81525090565b6040518060200160405280612ae8612b41565b81525090565b6040518060400160405280600060070b8152602001600060070b81525090565b6040518060200160405280606081525090565b6040518060400160405280612b34612b5d565b8152602001600081525090565b6040518060400160405280606081526020016000151581525090565b604051806040016040528060608152602001600081525090565b600081519050919050565b600082825260208201905092915050565b60005b83811015612bb1578082015181840152602081019050612b96565b60008484015250505050565b6000601f19601f8301169050919050565b6000612bd982612b77565b612be38185612b82565b9350612bf3818560208601612b93565b612bfc81612bbd565b840191505092915050565b600067ffffffffffffffff82169050919050565b612c2481612c07565b82525050565b60006040820190508181036000830152612c448185612bce565b9050612c536020830184612c1b565b9392505050565b600082825260208201905092915050565b6000612c7682612b77565b612c808185612c5a565b9350612c90818560208601612b93565b612c9981612bbd565b840191505092915050565b60008115159050919050565b612cb981612ca4565b82525050565b60006040830160008301518482036000860152612cdc8282612c6b565b9150506020830151612cf16020860182612cb0565b508091505092915050565b60006020820190508181036000830152612d168184612cbf565b905092915050565b600080fd5b612d2c81612c07565b8114612d3757600080fd5b50565b600081359050612d4981612d23565b92915050565b600060208284031215612d6557612d64612d1e565b5b6000612d7384828501612d3a565b91505092915050565b600081519050919050565b600082825260208201905092915050565b6000612da382612d7c565b612dad8185612d87565b9350612dbd818560208601612b93565b612dc681612bbd565b840191505092915050565b60006020820190508181036000830152612deb8184612d98565b905092915050565b60008160070b9050919050565b612e0981612df3565b82525050565b6000604082019050612e246000830185612e00565b612e316020830184612e00565b9392505050565b6000602082019050612e4d6000830184612c1b565b92915050565b612e5c81612ca4565b82525050565b6000602082019050612e776000830184612e53565b92915050565b7f4e487b7100000000000000000000000000000000000000000000000000000000600052602260045260246000fd5b60006002820490506001821680612ec457607f821691505b602082108103612ed757612ed6612e7d565b5b50919050565b7f4e487b7100000000000000000000000000000000000000000000000000000000600052604160045260246000fd5b60008190508160005260206000209050919050565b60006020601f8301049050919050565b600082821b905092915050565b600060088302612f6e7fffffffffffffffffffffffffffffffffffffffffffffffffffffffffffffffff82612f31565b612f788683612f31565b95508019841693508086168417925050509392505050565b6000819050919050565b6000819050919050565b6000612fbf612fba612fb584612f90565b612f9a565b612f90565b9050919050565b6000819050919050565b612fd983612fa4565b612fed612fe582612fc6565b848454612f3e565b825550505050565b600090565b613002612ff5565b61300d818484612fd0565b505050565b5b8181101561303157613026600082612ffa565b600181019050613013565b5050565b601f8211156130765761304781612f0c565b61305084612f21565b8101602085101561305f578190505b61307361306b85612f21565b830182613012565b50505b505050565b600082821c905092915050565b60006130996000198460080261307b565b1980831691505092915050565b60006130b28383613088565b9150826002028217905092915050565b6130cb82612b77565b67ffffffffffffffff8111156130e4576130e3612edd565b5b6130ee8254612eac565b6130f9828285613035565b600060209050601f83116001811461312c576000841561311a578287015190505b61312485826130a6565b86555061318c565b601f19841661313a86612f0c565b60005b828110156131625784890151825560018201915060208501945060208101905061313d565b8683101561317f578489015161317b601f891682613088565b8355505b6001600288020188555050505b505050505050565b60008190508160005260206000209050919050565b601f8211156131ea576131bb81613194565b6131c484612f21565b810160208510156131d3578190505b6131e76131df85612f21565b830182613012565b50505b505050565b6131f882612d7c565b67ffffffffffffffff81111561321157613210612edd565b5b61321b8254612eac565b6132268282856131a9565b600060209050601f8311600181146132595760008415613247578287015190505b61325185826130a6565b8655506132b9565b601f19841661326786613194565b60005b8281101561328f5784890151825560018201915060208501945060208101905061326a565b868310156132ac57848901516132a8601f891682613088565b8355505b6001600288020188555050505b505050505050565b7f6163746f72206572726f7220636f646520000000000000000000000000000000815250565b600081905092915050565b60006132fd82612d7c565b61330781856132e7565b9350613317818560208601612b93565b80840191505092915050565b600061332e826132c1565b60118201915061333e82846132f2565b915081905092915050565b7f4e487b7100000000000000000000000000000000000000000000000000000000600052600160045260246000fd5b7f496e76616c69642043424f520000000000000000000000000000000000000000600082015250565b60006133ae600c83612d87565b91506133b982613378565b602082019050919050565b600060208201905081810360008301526133dd816133a1565b9050919050565b7f4e487b7100000000000000000000000000000000000000000000000000000000600052601260045260246000fd5b7f4e487b7100000000000000000000000000000000000000000000000000000000600052601160045260246000fd5b600061344d82612f90565b915061345883612f90565b92508282019050808211156134705761346f613413565b5b92915050565b600061348182612f90565b915061348c83612f90565b92508282039050818111156134a4576134a3613413565b5b92915050565b60008160011c9050919050565b6000808291508390505b6001851115613501578086048111156134dd576134dc613413565b5b60018516156134ec5780820291505b80810290506134fa856134aa565b94506134c1565b94509492505050565b60008261351a57600190506135d6565b8161352857600090506135d6565b816001811461353e576002811461354857613577565b60019150506135d6565b60ff84111561355a57613559613413565b5b8360020a91508482111561357157613570613413565b5b506135d6565b5060208310610133831016604e8410600b84101617156135ac5782820a9050838111156135a7576135a6613413565b5b6135d6565b6135b984848460016134b7565b925090508184048111156135d0576135cf613413565b5b81810290505b9392505050565b60006135e882612f90565b91506135f383612f90565b92506136207fffffffffffffffffffffffffffffffffffffffffffffffffffffffffffffffff848461350a565b905092915050565b7f4e487b7100000000000000000000000000000000000000000000000000000000600052603260045260246000fd5b600061366282612f90565b91507fffffffffffffffffffffffffffffffffffffffffffffffffffffffffffffffff820361369457613693613413565b5b600182019050919050565b60006136aa82612f90565b91506136b583612f90565b9250826136c5576136c46133e4565b5b828206905092915050565b60006136db82612f90565b91506136e683612f90565b92508282026136f481612f90565b9150828204841483151761370b5761370a613413565b5b5092915050565b7f736c6963696e67206f7574206f662072616e6765000000000000000000000000600082015250565b6000613748601483612d87565b915061375382613712565b602082019050919050565b600060208201905081810360008301526137778161373b565b905091905056fea2646970667358221220928c96d8fd327c02daad1a73598230d30ff04aa8d099ae9ca7beb6c41b176f6d64736f6c63430008110033",
  "linkReferences": {},
  "deployedLinkReferences": {}
}